{
  "_format": "hh-sol-artifact-1",
  "contractName": "DefiVault",
  "sourceName": "contracts/DefiVault.sol",
  "abi": [
    {
      "inputs": [
        {
          "internalType": "contract IERC20",
          "name": "asset_",
          "type": "address"
        }
      ],
      "stateMutability": "nonpayable",
      "type": "constructor"
    },
    {
      "inputs": [
        {
          "internalType": "address",
          "name": "spender",
          "type": "address"
        },
        {
          "internalType": "uint256",
          "name": "allowance",
          "type": "uint256"
        },
        {
          "internalType": "uint256",
          "name": "needed",
          "type": "uint256"
        }
      ],
      "name": "ERC20InsufficientAllowance",
      "type": "error"
    },
    {
      "inputs": [
        {
          "internalType": "address",
          "name": "sender",
          "type": "address"
        },
        {
          "internalType": "uint256",
          "name": "balance",
          "type": "uint256"
        },
        {
          "internalType": "uint256",
          "name": "needed",
          "type": "uint256"
        }
      ],
      "name": "ERC20InsufficientBalance",
      "type": "error"
    },
    {
      "inputs": [
        {
          "internalType": "address",
          "name": "approver",
          "type": "address"
        }
      ],
      "name": "ERC20InvalidApprover",
      "type": "error"
    },
    {
      "inputs": [
        {
          "internalType": "address",
          "name": "receiver",
          "type": "address"
        }
      ],
      "name": "ERC20InvalidReceiver",
      "type": "error"
    },
    {
      "inputs": [
        {
          "internalType": "address",
          "name": "sender",
          "type": "address"
        }
      ],
      "name": "ERC20InvalidSender",
      "type": "error"
    },
    {
      "inputs": [
        {
          "internalType": "address",
          "name": "spender",
          "type": "address"
        }
      ],
      "name": "ERC20InvalidSpender",
      "type": "error"
    },
    {
      "inputs": [
        {
          "internalType": "uint256",
          "name": "requested",
          "type": "uint256"
        },
        {
          "internalType": "uint256",
          "name": "available",
          "type": "uint256"
        }
      ],
      "name": "InsufficientShares",
      "type": "error"
    },
    {
      "inputs": [],
      "name": "ReentrancyGuardReentrantCall",
      "type": "error"
    },
    {
      "inputs": [
        {
          "internalType": "address",
          "name": "token",
          "type": "address"
        }
      ],
      "name": "SafeERC20FailedOperation",
      "type": "error"
    },
    {
      "inputs": [],
      "name": "ZeroAmount",
      "type": "error"
    },
    {
      "inputs": [],
      "name": "ZeroShares",
      "type": "error"
    },
    {
      "anonymous": false,
      "inputs": [
        {
          "indexed": true,
          "internalType": "address",
          "name": "owner",
          "type": "address"
        },
        {
          "indexed": true,
          "internalType": "address",
          "name": "spender",
          "type": "address"
        },
        {
          "indexed": false,
          "internalType": "uint256",
          "name": "value",
          "type": "uint256"
        }
      ],
      "name": "Approval",
      "type": "event"
    },
    {
      "anonymous": false,
      "inputs": [
        {
          "indexed": true,
          "internalType": "address",
          "name": "user",
          "type": "address"
        },
        {
          "indexed": false,
          "internalType": "uint256",
          "name": "assets",
          "type": "uint256"
        },
        {
          "indexed": false,
          "internalType": "uint256",
          "name": "shares",
          "type": "uint256"
        }
      ],
      "name": "Deposited",
      "type": "event"
    },
    {
      "anonymous": false,
      "inputs": [
        {
          "indexed": true,
          "internalType": "address",
          "name": "from",
          "type": "address"
        },
        {
          "indexed": true,
          "internalType": "address",
          "name": "to",
          "type": "address"
        },
        {
          "indexed": false,
          "internalType": "uint256",
          "name": "value",
          "type": "uint256"
        }
      ],
      "name": "Transfer",
      "type": "event"
    },
    {
      "anonymous": false,
      "inputs": [
        {
          "indexed": true,
          "internalType": "address",
          "name": "user",
          "type": "address"
        },
        {
          "indexed": false,
          "internalType": "uint256",
          "name": "assets",
          "type": "uint256"
        },
        {
          "indexed": false,
          "internalType": "uint256",
          "name": "shares",
          "type": "uint256"
        }
      ],
      "name": "Withdrawn",
      "type": "event"
    },
    {
      "inputs": [
        {
          "internalType": "address",
          "name": "owner",
          "type": "address"
        },
        {
          "internalType": "address",
          "name": "spender",
          "type": "address"
        }
      ],
      "name": "allowance",
      "outputs": [
        {
          "internalType": "uint256",
          "name": "",
          "type": "uint256"
        }
      ],
      "stateMutability": "view",
      "type": "function"
    },
    {
      "inputs": [
        {
          "internalType": "address",
          "name": "spender",
          "type": "address"
        },
        {
          "internalType": "uint256",
          "name": "value",
          "type": "uint256"
        }
      ],
      "name": "approve",
      "outputs": [
        {
          "internalType": "bool",
          "name": "",
          "type": "bool"
        }
      ],
      "stateMutability": "nonpayable",
      "type": "function"
    },
    {
      "inputs": [],
      "name": "asset",
      "outputs": [
        {
          "internalType": "address",
          "name": "",
          "type": "address"
        }
      ],
      "stateMutability": "view",
      "type": "function"
    },
    {
      "inputs": [
        {
          "internalType": "address",
          "name": "account",
          "type": "address"
        }
      ],
      "name": "balanceOf",
      "outputs": [
        {
          "internalType": "uint256",
          "name": "",
          "type": "uint256"
        }
      ],
      "stateMutability": "view",
      "type": "function"
    },
    {
      "inputs": [],
      "name": "decimals",
      "outputs": [
        {
          "internalType": "uint8",
          "name": "",
          "type": "uint8"
        }
      ],
      "stateMutability": "view",
      "type": "function"
    },
    {
      "inputs": [
        {
          "internalType": "uint256",
          "name": "assets",
          "type": "uint256"
        }
      ],
      "name": "deposit",
      "outputs": [
        {
          "internalType": "uint256",
          "name": "",
          "type": "uint256"
        }
      ],
      "stateMutability": "nonpayable",
      "type": "function"
    },
    {
      "inputs": [],
      "name": "name",
      "outputs": [
        {
          "internalType": "string",
          "name": "",
          "type": "string"
        }
      ],
      "stateMutability": "view",
      "type": "function"
    },
    {
      "inputs": [
        {
          "internalType": "uint256",
          "name": "assets",
          "type": "uint256"
        }
      ],
      "name": "previewDeposit",
      "outputs": [
        {
          "internalType": "uint256",
          "name": "",
          "type": "uint256"
        }
      ],
      "stateMutability": "view",
      "type": "function"
    },
    {
      "inputs": [
        {
          "internalType": "uint256",
          "name": "shares",
          "type": "uint256"
        }
      ],
      "name": "previewWithdraw",
      "outputs": [
        {
          "internalType": "uint256",
          "name": "",
          "type": "uint256"
        }
      ],
      "stateMutability": "view",
      "type": "function"
    },
    {
      "inputs": [],
      "name": "symbol",
      "outputs": [
        {
          "internalType": "string",
          "name": "",
          "type": "string"
        }
      ],
      "stateMutability": "view",
      "type": "function"
    },
    {
      "inputs": [],
      "name": "totalAssets",
      "outputs": [
        {
          "internalType": "uint256",
          "name": "",
          "type": "uint256"
        }
      ],
      "stateMutability": "view",
      "type": "function"
    },
    {
      "inputs": [],
      "name": "totalSupply",
      "outputs": [
        {
          "internalType": "uint256",
          "name": "",
          "type": "uint256"
        }
      ],
      "stateMutability": "view",
      "type": "function"
    },
    {
      "inputs": [
        {
          "internalType": "address",
          "name": "to",
          "type": "address"
        },
        {
          "internalType": "uint256",
          "name": "value",
          "type": "uint256"
        }
      ],
      "name": "transfer",
      "outputs": [
        {
          "internalType": "bool",
          "name": "",
          "type": "bool"
        }
      ],
      "stateMutability": "nonpayable",
      "type": "function"
    },
    {
      "inputs": [
        {
          "internalType": "address",
          "name": "from",
          "type": "address"
        },
        {
          "internalType": "address",
          "name": "to",
          "type": "address"
        },
        {
          "internalType": "uint256",
          "name": "value",
          "type": "uint256"
        }
      ],
      "name": "transferFrom",
      "outputs": [
        {
          "internalType": "bool",
          "name": "",
          "type": "bool"
        }
      ],
      "stateMutability": "nonpayable",
      "type": "function"
    },
    {
      "inputs": [
        {
          "internalType": "uint256",
          "name": "shares",
          "type": "uint256"
        }
      ],
      "name": "withdraw",
      "outputs": [
        {
          "internalType": "uint256",
          "name": "",
          "type": "uint256"
        }
      ],
      "stateMutability": "nonpayable",
      "type": "function"
    }
  ],
  "bytecode": "0x60a060405234801561000f575f5ffd5b50604051611ede380380611ede8339818101604052810190610031919061022c565b6040518060400160405280601281526020017f44656669576974686472617720536861726500000000000000000000000000008152506040518060400160405280600581526020017f6477534b5400000000000000000000000000000000000000000000000000000081525081600390816100ac9190610494565b5080600490816100bc9190610494565b50505060016100dd6100d261018b60201b60201c565b6101b460201b60201c565b5f01819055505f73ffffffffffffffffffffffffffffffffffffffff168173ffffffffffffffffffffffffffffffffffffffff1603610151576040517f08c379a0000000000000000000000000000000000000000000000000000000008152600401610148906105bd565b60405180910390fd5b8073ffffffffffffffffffffffffffffffffffffffff1660808173ffffffffffffffffffffffffffffffffffffffff1681525050506105db565b5f7f9b779b17422d0df92223018b32b4d1fa46e071723d6817e2486d003becc55f005f1b905090565b5f819050919050565b5f5ffd5b5f73ffffffffffffffffffffffffffffffffffffffff82169050919050565b5f6101ea826101c1565b9050919050565b5f6101fb826101e0565b9050919050565b61020b816101f1565b8114610215575f5ffd5b50565b5f8151905061022681610202565b92915050565b5f60208284031215610241576102406101bd565b5b5f61024e84828501610218565b91505092915050565b5f81519050919050565b7f4e487b71000000000000000000000000000000000000000000000000000000005f52604160045260245ffd5b7f4e487b71000000000000000000000000000000000000000000000000000000005f52602260045260245ffd5b5f60028204905060018216806102d257607f821691505b6020821081036102e5576102e461028e565b5b50919050565b5f819050815f5260205f209050919050565b5f6020601f8301049050919050565b5f82821b905092915050565b5f600883026103477fffffffffffffffffffffffffffffffffffffffffffffffffffffffffffffffff8261030c565b610351868361030c565b95508019841693508086168417925050509392505050565b5f819050919050565b5f819050919050565b5f61039561039061038b84610369565b610372565b610369565b9050919050565b5f819050919050565b6103ae8361037b565b6103c26103ba8261039c565b848454610318565b825550505050565b5f5f905090565b6103d96103ca565b6103e48184846103a5565b505050565b5b81811015610407576103fc5f826103d1565b6001810190506103ea565b5050565b601f82111561044c5761041d816102eb565b610426846102fd565b81016020851015610435578190505b610449610441856102fd565b8301826103e9565b50505b505050565b5f82821c905092915050565b5f61046c5f1984600802610451565b1980831691505092915050565b5f610484838361045d565b9150826002028217905092915050565b61049d82610257565b67ffffffffffffffff8111156104b6576104b5610261565b5b6104c082546102bb565b6104cb82828561040b565b5f60209050601f8311600181146104fc575f84156104ea578287015190505b6104f48582610479565b86555061055b565b601f19841661050a866102eb565b5f5b828110156105315784890151825560018201915060208501945060208101905061050c565b8683101561054e578489015161054a601f89168261045d565b8355505b6001600288020188555050505b505050505050565b5f82825260208201905092915050565b7f4465666957697468647261773a207a65726f20617373657420616464726573735f82015250565b5f6105a7602083610563565b91506105b282610573565b602082019050919050565b5f6020820190508181035f8301526105d48161059b565b9050919050565b6080516118d66106085f395f818161035e01528181610619015281816106ca015261088701526118d65ff3fe608060405234801561000f575f5ffd5b50600436106100f3575f3560e01c8063313ce56711610095578063a9059cbb11610064578063a9059cbb1461029b578063b6b55f25146102cb578063dd62ed3e146102fb578063ef8b30f71461032b576100f3565b8063313ce5671461021157806338d52e0f1461022f57806370a082311461024d57806395d89b411461027d576100f3565b80630a28a477116100d15780630a28a4771461016357806318160ddd1461019357806323b872dd146101b15780632e1a7d4d146101e1576100f3565b806301e1d114146100f757806306fdde0314610115578063095ea7b314610133575b5f5ffd5b6100ff61035b565b60405161010c91906112d2565b60405180910390f35b61011d6103f9565b60405161012a919061135b565b60405180910390f35b61014d60048036038101906101489190611403565b610489565b60405161015a919061145b565b60405180910390f35b61017d60048036038101906101789190611474565b6104ab565b60405161018a91906112d2565b60405180910390f35b61019b6104ee565b6040516101a891906112d2565b60405180910390f35b6101cb60048036038101906101c6919061149f565b6104f7565b6040516101d8919061145b565b60405180910390f35b6101fb60048036038101906101f69190611474565b610525565b60405161020891906112d2565b60405180910390f35b6102196106bf565b604051610226919061150a565b60405180910390f35b6102376106c7565b6040516102449190611532565b60405180910390f35b6102676004803603810190610262919061154b565b6106ee565b60405161027491906112d2565b60405180910390f35b610285610733565b604051610292919061135b565b60405180910390f35b6102b560048036038101906102b09190611403565b6107c3565b6040516102c2919061145b565b60405180910390f35b6102e560048036038101906102e09190611474565b6107e5565b6040516102f291906112d2565b60405180910390f35b61031560048036038101906103109190611576565b61092d565b60405161032291906112d2565b60405180910390f35b61034560048036038101906103409190611474565b6109af565b60405161035291906112d2565b60405180910390f35b5f7f000000000000000000000000000000000000000000000000000000000000000073ffffffffffffffffffffffffffffffffffffffff166370a08231306040518263ffffffff1660e01b81526004016103b59190611532565b602060405180830381865afa1580156103d0573d5f5f3e3d5ffd5b505050506040513d601f19601f820116820180604052508101906103f491906115c8565b905090565b60606003805461040890611620565b80601f016020809104026020016040519081016040528092919081815260200182805461043490611620565b801561047f5780601f106104565761010080835404028352916020019161047f565b820191905f5260205f20905b81548152906001019060200180831161046257829003601f168201915b5050505050905090565b5f5f6104936109f2565b90506104a08185856109f9565b600191505092915050565b5f5f6104b56104ee565b90505f81036104c7575f9150506104e9565b806104d061035b565b846104db919061167d565b6104e591906116eb565b9150505b919050565b5f600254905090565b5f5f6105016109f2565b905061050e858285610a0b565b610519858585610a9e565b60019150509392505050565b5f61052e610b8e565b5f8203610567576040517f9811e0c700000000000000000000000000000000000000000000000000000000815260040160405180910390fd5b5f610571336106ee565b9050808311156105ba5782816040517fcb1d8bba0000000000000000000000000000000000000000000000000000000081526004016105b192919061171b565b60405180910390fd5b5f6105c4846104ab565b90505f8111610608576040517f08c379a00000000000000000000000000000000000000000000000000000000081526004016105ff906117b2565b60405180910390fd5b6106123385610bb0565b61065d33827f000000000000000000000000000000000000000000000000000000000000000073ffffffffffffffffffffffffffffffffffffffff16610c2f9092919063ffffffff16565b3373ffffffffffffffffffffffffffffffffffffffff167f92ccf450a286a957af52509bc1c9939d1a6a481783e142e41e2499f0bb66ebc682866040516106a592919061171b565b60405180910390a280925050506106ba610c82565b919050565b5f6012905090565b5f7f0000000000000000000000000000000000000000000000000000000000000000905090565b5f5f5f8373ffffffffffffffffffffffffffffffffffffffff1673ffffffffffffffffffffffffffffffffffffffff1681526020019081526020015f20549050919050565b60606004805461074290611620565b80601f016020809104026020016040519081016040528092919081815260200182805461076e90611620565b80156107b95780601f10610790576101008083540402835291602001916107b9565b820191905f5260205f20905b81548152906001019060200180831161079c57829003601f168201915b5050505050905090565b5f5f6107cd6109f2565b90506107da818585610a9e565b600191505092915050565b5f6107ee610b8e565b5f8203610827576040517f1f2a200500000000000000000000000000000000000000000000000000000000815260040160405180910390fd5b5f610831836109af565b90505f8111610875576040517f08c379a000000000000000000000000000000000000000000000000000000000815260040161086c9061181a565b60405180910390fd5b61087f3382610c9c565b6108cc3330857f000000000000000000000000000000000000000000000000000000000000000073ffffffffffffffffffffffffffffffffffffffff16610d1b909392919063ffffffff16565b3373ffffffffffffffffffffffffffffffffffffffff167f73a19dd210f1a7f902193214c0ee91dd35ee5b4d920cba8d519eca65a7b488ca848360405161091492919061171b565b60405180910390a280915050610928610c82565b919050565b5f60015f8473ffffffffffffffffffffffffffffffffffffffff1673ffffffffffffffffffffffffffffffffffffffff1681526020019081526020015f205f8373ffffffffffffffffffffffffffffffffffffffff1673ffffffffffffffffffffffffffffffffffffffff1681526020019081526020015f2054905092915050565b5f5f6109b96104ee565b90505f81036109cb57829150506109ed565b6109d361035b565b81846109df919061167d565b6109e991906116eb565b9150505b919050565b5f33905090565b610a068383836001610d70565b505050565b5f610a16848461092d565b90507fffffffffffffffffffffffffffffffffffffffffffffffffffffffffffffffff811015610a985781811015610a89578281836040517ffb8f41b2000000000000000000000000000000000000000000000000000000008152600401610a8093929190611838565b60405180910390fd5b610a9784848484035f610d70565b5b50505050565b5f73ffffffffffffffffffffffffffffffffffffffff168373ffffffffffffffffffffffffffffffffffffffff1603610b0e575f6040517f96c6fd1e000000000000000000000000000000000000000000000000000000008152600401610b059190611532565b60405180910390fd5b5f73ffffffffffffffffffffffffffffffffffffffff168273ffffffffffffffffffffffffffffffffffffffff1603610b7e575f6040517fec442f05000000000000000000000000000000000000000000000000000000008152600401610b759190611532565b60405180910390fd5b610b89838383610f3f565b505050565b610b96611158565b6002610ba8610ba3611199565b6111c2565b5f0181905550565b5f73ffffffffffffffffffffffffffffffffffffffff168273ffffffffffffffffffffffffffffffffffffffff1603610c20575f6040517f96c6fd1e000000000000000000000000000000000000000000000000000000008152600401610c179190611532565b60405180910390fd5b610c2b825f83610f3f565b5050565b610c3c83838360016111cb565b610c7d57826040517f5274afe7000000000000000000000000000000000000000000000000000000008152600401610c749190611532565b60405180910390fd5b505050565b6001610c94610c8f611199565b6111c2565b5f0181905550565b5f73ffffffffffffffffffffffffffffffffffffffff168273ffffffffffffffffffffffffffffffffffffffff1603610d0c575f6040517fec442f05000000000000000000000000000000000000000000000000000000008152600401610d039190611532565b60405180910390fd5b610d175f8383610f3f565b5050565b610d2984848484600161122d565b610d6a57836040517f5274afe7000000000000000000000000000000000000000000000000000000008152600401610d619190611532565b60405180910390fd5b50505050565b5f73ffffffffffffffffffffffffffffffffffffffff168473ffffffffffffffffffffffffffffffffffffffff1603610de0575f6040517fe602df05000000000000000000000000000000000000000000000000000000008152600401610dd79190611532565b60405180910390fd5b5f73ffffffffffffffffffffffffffffffffffffffff168373ffffffffffffffffffffffffffffffffffffffff1603610e50575f6040517f94280d62000000000000000000000000000000000000000000000000000000008152600401610e479190611532565b60405180910390fd5b8160015f8673ffffffffffffffffffffffffffffffffffffffff1673ffffffffffffffffffffffffffffffffffffffff1681526020019081526020015f205f8573ffffffffffffffffffffffffffffffffffffffff1673ffffffffffffffffffffffffffffffffffffffff1681526020019081526020015f20819055508015610f39578273ffffffffffffffffffffffffffffffffffffffff168473ffffffffffffffffffffffffffffffffffffffff167f8c5be1e5ebec7d5bd14f71427d1e84f3dd0314c0f7b2291e5b200ac8c7c3b92584604051610f3091906112d2565b60405180910390a35b50505050565b5f73ffffffffffffffffffffffffffffffffffffffff168373ffffffffffffffffffffffffffffffffffffffff1603610f8f578060025f828254610f83919061186d565b9250508190555061105d565b5f5f5f8573ffffffffffffffffffffffffffffffffffffffff1673ffffffffffffffffffffffffffffffffffffffff1681526020019081526020015f2054905081811015611018578381836040517fe450d38c00000000000000000000000000000000000000000000000000000000815260040161100f93929190611838565b60405180910390fd5b8181035f5f8673ffffffffffffffffffffffffffffffffffffffff1673ffffffffffffffffffffffffffffffffffffffff1681526020019081526020015f2081905550505b5f73ffffffffffffffffffffffffffffffffffffffff168273ffffffffffffffffffffffffffffffffffffffff16036110a4578060025f82825403925050819055506110ee565b805f5f8473ffffffffffffffffffffffffffffffffffffffff1673ffffffffffffffffffffffffffffffffffffffff1681526020019081526020015f205f82825401925050819055505b8173ffffffffffffffffffffffffffffffffffffffff168373ffffffffffffffffffffffffffffffffffffffff167fddf252ad1be2c89b69c2b068fc378daa952ba7f163c4a11628f55a4df523b3ef8360405161114b91906112d2565b60405180910390a3505050565b61116061129e565b15611197576040517f3ee5aeb500000000000000000000000000000000000000000000000000000000815260040160405180910390fd5b565b5f7f9b779b17422d0df92223018b32b4d1fa46e071723d6817e2486d003becc55f005f1b905090565b5f819050919050565b5f5f63a9059cbb60e01b9050604051815f525f1960601c86166004528460245260205f60445f5f8b5af1925060015f5114831661121f578383151615611213573d5f823e3d81fd5b5f873b113d1516831692505b806040525050949350505050565b5f5f6323b872dd60e01b9050604051815f525f1960601c87166004525f1960601c86166024528460445260205f60645f5f8c5af1925060015f5114831661128b57838315161561127f573d5f823e3d81fd5b5f883b113d1516831692505b806040525f606052505095945050505050565b5f60026112b16112ac611199565b6111c2565b5f015414905090565b5f819050919050565b6112cc816112ba565b82525050565b5f6020820190506112e55f8301846112c3565b92915050565b5f81519050919050565b5f82825260208201905092915050565b8281835e5f83830152505050565b5f601f19601f8301169050919050565b5f61132d826112eb565b61133781856112f5565b9350611347818560208601611305565b61135081611313565b840191505092915050565b5f6020820190508181035f8301526113738184611323565b905092915050565b5f5ffd5b5f73ffffffffffffffffffffffffffffffffffffffff82169050919050565b5f6113a88261137f565b9050919050565b6113b88161139e565b81146113c2575f5ffd5b50565b5f813590506113d3816113af565b92915050565b6113e2816112ba565b81146113ec575f5ffd5b50565b5f813590506113fd816113d9565b92915050565b5f5f604083850312156114195761141861137b565b5b5f611426858286016113c5565b9250506020611437858286016113ef565b9150509250929050565b5f8115159050919050565b61145581611441565b82525050565b5f60208201905061146e5f83018461144c565b92915050565b5f602082840312156114895761148861137b565b5b5f611496848285016113ef565b91505092915050565b5f5f5f606084860312156114b6576114b561137b565b5b5f6114c3868287016113c5565b93505060206114d4868287016113c5565b92505060406114e5868287016113ef565b9150509250925092565b5f60ff82169050919050565b611504816114ef565b82525050565b5f60208201905061151d5f8301846114fb565b92915050565b61152c8161139e565b82525050565b5f6020820190506115455f830184611523565b92915050565b5f602082840312156115605761155f61137b565b5b5f61156d848285016113c5565b91505092915050565b5f5f6040838503121561158c5761158b61137b565b5b5f611599858286016113c5565b92505060206115aa858286016113c5565b9150509250929050565b5f815190506115c2816113d9565b92915050565b5f602082840312156115dd576115dc61137b565b5b5f6115ea848285016115b4565b91505092915050565b7f4e487b71000000000000000000000000000000000000000000000000000000005f52602260045260245ffd5b5f600282049050600182168061163757607f821691505b60208210810361164a576116496115f3565b5b50919050565b7f4e487b71000000000000000000000000000000000000000000000000000000005f52601160045260245ffd5b5f611687826112ba565b9150611692836112ba565b92508282026116a0816112ba565b915082820484148315176116b7576116b6611650565b5b5092915050565b7f4e487b71000000000000000000000000000000000000000000000000000000005f52601260045260245ffd5b5f6116f5826112ba565b9150611700836112ba565b9250826117105761170f6116be565b5b828204905092915050565b5f60408201905061172e5f8301856112c3565b61173b60208301846112c3565b9392505050565b7f4465666957697468647261773a207a65726f206173736574732072657475726e5f8201527f6564000000000000000000000000000000000000000000000000000000000000602082015250565b5f61179c6022836112f5565b91506117a782611742565b604082019050919050565b5f6020820190508181035f8301526117c981611790565b9050919050565b7f4465666957697468647261773a207a65726f20736861726573206d696e7465645f82015250565b5f6118046020836112f5565b915061180f826117d0565b602082019050919050565b5f6020820190508181035f830152611831816117f8565b9050919050565b5f60608201905061184b5f830186611523565b61185860208301856112c3565b61186560408301846112c3565b949350505050565b5f611877826112ba565b9150611882836112ba565b925082820190508082111561189a57611899611650565b5b9291505056fea264697066735822122040633942641a7712c34c3e2cdfd75441254df576294f2a0e892156b4842be52364736f6c634300081c0033",
  "linkReferences": {},
  "deployedLinkReferences": {}
}